:10186500776172696E672121002566A1E6004194C2
:1018750028F641B6A3D741D8CCCD41FAB852420E8D
:1018850028F6421EE148422F851F42400000425083
:1018950070A44260C28F42710A3D4280999A428883
:1018A500A8F64290A8F64298A8F642A09EB842A88B
:1018B5008A3D42B070A442B851EC42C02E1442C8D1
:1018C500000042CFCCCD42D7947B42DF570A42E796
:1018D500147B42EECCCD42F67AE142FE28F6430275
:1018E500E6664306B5C3430A828F430E4A3D43125B
:1018F50011EC4315D47B4319947B431D547B432141
:101905000CCD4324C51F43287AE1432C2B85432F57
:10191500DC29433387AE433730A4433AD70A433EE5
:1019250078524342199A4345B5C343494F5C434CEA
:10193500E66643507AE143540CCD43579C29435BFB
:101945002666435EAE14436235C34365B8524369A8
:1019550035C3436CB33343702E144373A3D7437716
:10196500170A437A87AE437DF5C34380B0A443820B
:1019750063D74384170A4385C7AE4387770A4389EC
:10198500251F438AD1EC438C7D71438E2666438F98
:10199500CF5C439175C343931AE14394BEB8439614
:1019A5006000439801484399A000439B3EB8439C7F
:1019B500DAE1439E75C343A00F5C43A1A66643A32A
:1019C5003D7143A4D1EC43A6651F43A7F70A43A97C
:1019D50087AE43AB170A43ACA3D743AE30A443AF9E
:1019E500BAE143B143D743B2CB8543B451EC43B5D8
:1019F500D5C343B7599A43B8DAE143BA5AE143BB71
:101A0500D99A43BD570A43BED33343C04CCD43C1D6
:061A1500C66643C33D71EB
:03002300021B4578
:101B4500309805C298859980309904C299C20932A6
:091B7A002009FDEFD209F59922C2
:061A1B007B017A00794511
:101A2100900013EBF0A3EAF0A3E9F0900013E0FBC0
:101A3100A3E0FAA3E0F9120D7C6017900013A3E470
:101A410075F001120E1CA9F0FA120D7CFF121B7A1F
:031A510080D92217
:0E1B5500E4FFFE0FBF00010EEF64024E70F5BC
:011B6300225F
:101B2100D295121B55D296121B55C295121B55C246
:021B31009622FA
:101B0D00C295121B55C296121B55D296121B55D259
:041B1D0095021B55BD
:0A1B7000EF24FF9295D296C2962250
:101AF800E4FFD295D296309509EFC394FA50030FBC
:041B080080F4C2960D
:011B0C0022B6
:101A7B007E80E4FDC296EE5F7004C2958002D29523
:101A8B00EEC313FED296C2960DEDB408E7C296D202
:041A9B0095021AF89E
:101ADE00C296D295E4FED296EF25E0FDA295E433B0
:091AEE004DFFC2960EEEB408EDA6
:011AF70022CC
:101B3300AC07121B217F90121A7BAF04121A7B028F
:021B43001B0D78
:101A9F00121B217F91121A7B121ADE900043EFF076
:101AAF00E4FF121B70121ADEA3EFF07F01121B70FE
:031ABF00021B0DFA
:101AC2007F8C121B33121A9F900043E075F0FFA423
:0B1AD200FFA3E07C002FFFEC35F0FECE
:011ADD0022E6
:10165200900013EBF0A3EAF0A3E9F0A3ECF0FAA3F5
:03166200EDF0FBAD
:10166500A3E0FCA3E0FDA3E0FEA3E0FF90002212AF
:101675000EA0E490001CF0A3F0EB24FFFEEA34FF7B
:10168500A3F0A3CEF090001EE0FEA3E07802C333E2
:10169500CE33CED8F9FF900013E0FBA3E0FAA3E028
:1016A500F98F828E83120E60900022E0F8A3E0F994
:1016B500A3E0FAA3E0FB120A9E6008400690001E14
:1016C5000217BE900013E0FBA3E0FAA3E0F9120EA7
:1016D50040900022E0F8A3E0F9A3E0FAA3E0FB12B2
:1016E5000A9E5004E4FEFF22900017E024FFFF90BD
:1016F5000016E034FFFED390001DE09FEE6480F8F5
:1017050090001CE0648098400302186090001EE081
:10171500FEA3E0FFC3EE648094805003021860903E
:10172500001DE02FFF90001CE03ECF2401CF3400C8
:10173500FE7C007D02120DE6900020EEF0A3EFF096
:10174500900020E0FEA3E07802C333CE33CED8F973
:10175500FF900013E0FBA3E0FAA3E0F98F828E83EC
:10176500120E60900022E0F8A3E0F9A3E0FAA3E0EE
:10177500FB120A9E4049900021E02401FF900020C1
:10178500E03400FEEF7802C333CE33CED8F9FF90B4
:101795000013E0FBA3E0FAA3E0F98F828E83120E1B
:1017A50060900022E0F8A3E0F9A3E0FAA3E0FB12C1
:1017B5000A9E60025009900020E0FEA3E0FF2290FF
:1017C5000020E0FEA3E07802C333CE33CED8F9FF84
:1017D500900013E0FBA3E0FAA3E0F98F828E831259
:1017E5000E60900022E0F8A3E0F9A3E0FAA3E0FB85
:1017F500120A9E60164014900021E02401FE90001C
:1018050020E0340090001CF0A3CEF0900020E0FE14
:10181500A3E07802C333CE33CED8F9FF900013E0AE
:10182500FBA3E0FAA3E0F98F828E83120E6090008D
:1018350022E0F8A3E0F9A3E0FAA3E0FB120A9E4038
:10184500030216ED900021E024FFFE900020E03415
:0F185500FF90001EF0A3CEF00216ED7EFF7FFF86
:011864002261
:1013EE00E4900000F0759850758920758BF3758D1B
:0713FE00F3D28ED2ACD2AF96
:10140500E490000FF0A3F0E4900011F0A3F0900039
:1014150012E004F07006900011E004F0900011E075
:101425007004A3E0646470E6900010E004F07006B8
:1014350090000FE004F090000FE07004A3E06464F6
:1014450070C5121AC2AD07AC06E4120B107B5F7AA9
:1014550029794B783B1208F87B587AB979C07842DC
:1014650012080790000B120EA07BFF7A1879739073
:10147500000BE0FCA3E0FDA3E0FEA3E0FF90001855
:10148500120EA07D6A7C00121652900001EEF0A3A8
:10149500EFF0BEFF1CBFFF19E4900001F0A3F0A31D
:1014A500F0A3F0A3F0A3F0900003E0FCA3E0FD801F
:1014B50029900001E07004A3E064697024900001A4
:1014C500E0FEA3E0FF7C007D0A120DD4A3EEF0FC44
:1014D500A3EFF0FDA3EEF0A3EFF0EC120B10021555
:1014E500C0900001E0FEA3E07802C333CE33CED82E
:1014F500F92473F58274183EF583120E90120B4988
:10150500900003EEF0A3EFF0900001E0FEA3E07879
:1015150002C333CE33CED8F92477F58274183EF55D
:1015250083120E90120B49900005EEF0A3EFF09098
:101535000003E0FCA3E0FDEC120B10A804A905AA2A
:1015450006AB0790000BE0FCA3E0FDA3E0FEA3E0E3
:10155500FF120803C004C005C006C007900003E0E1
:10156500FEA3E0FFC3900006E09FFD900005E09E0E
:10157500FC120B10A804A905AA06AB07D007D006D4
:10158500D005D004120A01E4FBFA7920784112084B
:10159500F8C004C005C006C007900001E0FEA3E046
:1015A500FF7C007D0A120DD4AC06AD07EC120B10C2
:1015B500D003D002D001D000120807900007120E08
:1015C500A0900007E0FCA3E0FDA3E0FEA3E0FFE49C
:1015D500FBFA794878C3120807900007120EA0E4B9
:1015E500FFFE7D207C42900007E0F8A3E0F9A3E030
:1015F500FAA3E0FB120A9E6021401F90001674FFBB
:10160500F0A37418F0A37465F07B017A0079451294
:101615000FD0121A1BD29702140590001674FFF012
:10162500A37418F0A3746EF0900007E0FCA3E0FD2E
:10163500A3E0FEA3E0FF900019120EA07B017A0043
:0A1645007945120FD0121A1BC2974C
:03164F000214057D
:10080000020BB5E86480F8E933E83360110460F066
:10081000ED33EC337009E8FCE9FDEAFEEBFF22045E
:1008200060DED3EB9FEA9EE99DE8C2E78CF0C2F759
:1008300095F0400CE8CCF8E9CDF9EACEFAEBCFFB25
:10084000120B8085D0F05804700320D5B3E80470F3
:10085000075002B2D5020BBF92D5EC0460F7E4CC8E
:10086000C0E0C398F8603B94186008400DD0E0FBEE
:10087000020B97E4FBFAC9FC8028E830E406E4C9DF
:10088000FBE4CAFCE830E305E4C9CACBFCE8540742
:100890006010F8C3E913F9EA13FAEB13FBEC13FC4D
:1008A000D8F130F52FC3E49CFCEF9BFFEE9AFEEDF0
:1008B00099FDD0E0FBEF4E4D4C701222DB03020B92
:1008C000BCEC2CFCEF33FFEE33FEED33FDED30E7F7
:1008D000EB020B97EF2BFFEE3AFEED39FDD0E0FB7C
:1008E00050130BBB0003020BBFED13FDEE13FEEF25
:0808F00013FFEC13FC020B974F
:1008F800EC4D6011E8497017ED33EC3304600DE4FA
:10090800FCFFFEFD22E933E8330470F8020BB51250
:100918000B8058046009E4CC248150062850090251
:100928000BBF284003020BBCC0E0EB4A7044B980FF
:1009380006D0E0FB020BABEF4E701CBD8008EBFF4E
:10094800EAFEE9FD80EBE98DF0A4FEE5F00209E19D
:10095800E9CDF9EAFEEBFFEF89F0A4FCE5F0CE89DA
:10096800F0A42EFFE435F0CD89F0A42DFEE435F097
:100978008067EF4E7005BD80D780C3EF8BF0A4ACC5
:10098800F0EE8BF0A42CFCE435F0F8EF8AF0A42C00
:10099800E5F038FCE433CB8DF0A42CFCE5F03BF813
:1009A800EE8AF0A42CFCE5F038F8E433CF89F0A403
:1009B8002CFCE5F038CF3400CE89F0A42FFFE5F009
:1009C8003EFEE433C98DF0A42EFEE5F039CD8AF061
:1009D800A42FFFE5F03EFEE43DFD33D0E0FB5007D9
:1009E8000BBB000F020BBFEC2CFCEF33FFEE33FE0A
:0609F800ED33FD020B9738
:1009FE00020BBFEC5D046005E859047003020BB5F1
:100A0E00120B80580460F6EC4860F2EC7004FDFEA8
:100A1E00FF22C860DB2481C85009C39860025006CB
:100A2E00020BBC9850CAF582E9294B4A7005AB827D
:100A3E00020BAB75F0007C1A7880C3EF9BEE9AED3B
:100A4E0099400DC3EF9BFFEE9AFEED99FDE842F043
:100A5E00DC23ACF0D0E0FFD0E0FED0E0FDAB822096
:100A6E00E7101BEB60BAEC2CFCEF33FFEE33FEED20
:100A7E0033FD020B97E803F830E705C0F075F00080
:100A8E00EF2FFFEE33FEED33FD40B830E7C280AA04
:100A9E0074F8CC6480CCC86480C8F582046043C30B
:100AAE00EB9FF5F0EA9E42F0E99D42F0E89C45F09E
:100ABE0060305018E5825FFFE582F42B5582FB50C3
:100ACE00210ABA001D09B90019088016E5825BFBE0
:100ADE00E582F42F5582FF50090EBE00050DBD00B4
:100AEE00010CC3EB9FF5F0EA9E42F0E99D42F0E85F
:0D0AFE009C45F06007CC4820E701B3EC22D6
:100B0B0075F020800E75F010800575F0087D007E65
:100B1B00007F003392D530D503120E32EC334010E8
:100B2B00EF33FFEE33FEED33FDEC33FCD5F0ED226E
:0E0B3B00E5F0247EA2D513CC92E7CDCEFF22AA
:100B4900EDD2E7CD33EC3392D524814006E4FFFEA4
:100B5900FDFC22FCE4CFCECDCC24E0501174FF8003
:100B6900EDC3CC13CCCD13CDCE13CECF13CF0470A0
:070B7900F030D5DE020E3260
:100F6B00E5082416F582E43400F583E005082290A9
:100F7B000013300703900016E475F001120EAC025B
:100F8B000D7C2000E97F2ED2008018EF540F2490A7
:100F9B00D43440D4FF30040BEF24BFB41A005003F9
:100FAB002461FFE50960021509050CE50C700205CB
:100FBB000B30070E900013E475F001120EACEF022C
:100FCB000DC2021A547403D2078003E4C207F5085A
:100FDB00900013120EC3E4F509F50BF50CE509604F
:100FEB00077F20120FAE80F5750AFFC201C200C247
:100FFB0002C203C205C206C208120F7AFF700D307F
:10100B0007057F00120FBFAF0CAE0B22B4255FC2DA
:10101B00D5C204120F7AFF24D0B40A00501A75F00F
:10102B000A780930D50508B6FF0106C6A426F620B6
:10103B00D5047002D20380D924CFB41A00EF500428
:10104B00C2E5D2040212B1D20180C6D20080C0D256
:10105B000280BCD2D580BAD20580B47F20120FAEED
:10106B002002077401B5090040F1120F6BFF120F3C
:10107B00AE020FE8D208D2068095120F6BFB120F4F
:10108B006BFA120F6BF94A4B700679AF7A137BFF31
:10109B0020022EE509602A7E008E82758300120DD8
:1010AB009560060EEE650A70F0C2D5EBC0E0EAC0A3
:1010BB00E0E9C0E0EE121312D0E0F9D0E0FAD0E094
:1010CB00FB120D7CFF60AAEBC0E0EAC0E0E9C0E0D8
:1010DB00120FAED0E02401F9D0E03400FAD0E0FBDF
:1010EB00E50A0460DCD50AD98087D20280A21212ED
:1010FB00F460F7E50A700104120BCAA90A600DE54A
:10110B000A600914F50A12139CEF60F3EA30E70248
:10111B00F404C3995079EAF4250A0430E701E40496
:10112B00F50A800D1212F460C1EA050A250A120BAA
:10113B00CAEA900042F030E701E4250A04D50A041C
:10114B0020050114121312E4C0E012139C9000420C
:10115B00E0601320E70714F0120F96802204F0D002
:10116B00E014C0E07F00120F96E50A6007120F8DA6
:10117B00150A800B300503120F8DD0E0020FE8D05B
:10118B00E00480C41212F4609EE50A04120BCA90AC
:10119B000042EAF0E50A2005026001042404121360
:0111AB001231
:1011AC0074FF04C0E012139C120F96E50A2005028E
:1011BC006003120F8DD0E0B50AE87F45120FA090A6
:1011CC000042E07F2B30E7047F2DF404C0E0120FC7
:1011DC00AED0E075F00A84C0F0120F97D0E0120F79
:1011EC0097020FE8791080027908C206C2088008BD
:1011FC00D2D5790A8004790AC2D5E50A047002F5C1
:10120C000AE4FAFDFEFF120F6BFC7B08200113129F
:10121C000F6BFD7B1030000A120F6BFE120F6BFF71
:10122C007B20EC3382D592D55013C3E43000069F5B
:10123C00FFE49EFEE42001039DFDE49CFCE4CBF85E
:10124C00C201EC700CCFCECDCCE824F8F870F38052
:10125C0017C3EF33FFEE33FEED33FDEC33FCEB3312
:10126C00FB994002FB0FD8E9EB300105F8D0E0C444
:10127C0048B201C0E00AEC4D4E4F78207B0070C2A2
:10128C00EAB50A0040BCC0E0121314D0F0D0E02044
:10129C000104C4C0E0C4B201C0F0120F97D0F0D565
:1012AC00F0EB020FE8120ECC10855311F0581056CB
:1012BC004C10524211F44F11FC4411FC49106B4379
:1012CC00120255112F46118F4510F94713CF5010AC
:1012DC005A2D105E2E10812B106223107F2013B814
:1012EC002A101A4800001079E50AB4FF03750A06A3
:1012FC00120F6BFC120F6BFD120F6BFE120F6BFFBC
:10130C0090003B020C07790AA2D520031430050982
:10131C00B910020404B9080104A2D5200602500138
:10132C00042002689202B509005034C0E07F2030DE
:10133C0003197F30A20272067205500F12136BC292
:10134C0002C206C205C2087F30800F300503E9C017
:10135C00E0120FAE300503D0E0F9D0E0B509CC3087
:10136C0005177F30B9100C120FAE7F583004077F71
:10137C00788003B90803120FAE3002057F2D020FDF
:10138C00AE7F202008F87F2B2006F322920280CF1C
:10139C007F00B40700500B243BF582E43400F58346
:1013AC00E0FF22286E756C6C2900D201120F6B3095
:1013BC0001F8C201780930D50108F602101A2D5037
:1013CC00434958120F6B2403B405004001E49013F9
:1013DC00CA93120F9F743A120F9FD203750904021D
:0213EC0011F0FE
:100B8000E9D2E7C933E833F892D5EDD2E7CD33ECBB
:070B900033FC5002B2D52234
:100B9700EC30E7100FBF000C0EBE00080DBD0004BF
:100BA7000BEB6014A2D5EB13FCED92E7FD2274FF6B
:100BB700FCFDFEFF22E480F8A2D574FF13FC7D80C4
:030BC700E480EFD8
:100BCA00F920E73624F950037907E4F42402FBE517
:100BDA0082158270021583DBF6E024FB501BE96064
:100BEA0014E4F0E582158270021583E004F0B40A79
:0D0BFA0008E4F0D9EE7401F00A22C2D52201
:100C0700ED33EC3392D5FA602AB4FF33EDC2E77BBC
:100C1700FF60067A0C792CE4227A0C793520D5040A
:100C27007A0C7930224E614E002B494E46002D49F1
:100C37004E4600E47A08F0A3DAFC7B00740722C072
:100C470083C082ECC0E0EDC0E0EEC0E0EFC0E0EAB8
:100C570075F010A4CAABF075F04DA42BFBE435F08A
:100C6700FCEA2410FAEB34C5FBEC34D9FCEDC2E7FF
:100C7700FF75F056A4F42411C5F0F434C58FF0A421
:100C87002AE5F03BE43CF020E714120D3CD0E0FFEE
:100C9700D0E0FED0E0FDD0E0FC120A018014F4049D
:100CA700120D3CD0E0FFD0E0FED0E0FDD0E0FC121A
:100CB70008F8D082D083E0FAEDD2E7CD33EC3324C5
:100CC70082FBE4C3CF33CFCE33CECD33CD33DBF38B
:100CD7007B0775F00A846004F0A31B0AE5F0F0A314
:100CE7008FF0740AA4FFACF08EF0740AA42CFEAC4B
:100CF700F050010C8DF0740AA42CFDE435F0F0A33C
:050D0700DBDE74072291
:100D0C003F8000004120000042C80000447A0000EF
:100D1C00461C400047C35000497424004B18968071
:100D2C004CBEBC205A0E1BCA6753C21C749DC5AE68
:100D3C00FB60065407601C2323120D6AEB543860C9
:100D4C0009120D56120D651208F8ECF8EDF9EEFAD1
:100D5C00EFCB22EB120D6580F1543803241C900D5F
:100D6C000CFE93FC0EEE93FD0EEE930ECE93FF2233
:03000000021B647C
:0C1B6400787FE4F6D8FD7581210213EEB5
:100D7C00BB010689828A83E0225002E722BBFE0275
:090D8C00E32289828A83E49322A8
:100D9500BB010CE58229F582E5833AF583E0225013
:100DA50006E92582F8E622BBFE06E92582F8E2225D
:0D0DB500E58229F582E5833AF583E4932277
:100DC200BB010689828A83F0225002F722BBFE0110
:020DD200F3220A
:100DD400EF8DF0A4A8F0CF8CF0A428CE8DF0A42E33
:020DE400FE22ED
:100DE600C2D5EC30E709B2D5E4C39DFDE49CFCEE28
:100DF60030E715B2D5E4C39FFFE49EFE120EF2C3A0
:100E0600E49DFDE49CFC8003120EF230D507C3E49A
:060E16009FFFE49EFE2296
:100E1C00A3F8E0C5F025F0F0E58215827002158389
:060E2C00E0C838F0E822E6
:0E0E3200C3E49FFFE49EFEE49DFDE49CFC22D1
:100E4000BB010789828A83020F535005E9F8020F1C
:100E500047BBFE05E9F8020F5F89828A83020E9084
:100E6000BB010DE58229F582E5833AF583020F5334
:100E70005007E92582F8020F47BBFE07E92582F8F3
:100E8000020F5FE58229F582E5833AF583020E9031
:100E9000E493FC740193FD740293FE740393FF22A8
:0C0EA000ECF0A3EDF0A3EEF0A3EFF022C5
:100EAC00F8E0FBA3A3E0F925F0F0E58215827002CF
:070EBC001583E0FA38F02273
:090EC300EBF0A3EAF0A3E9F02230
:100ECC00D083D082F8E4937012740193700DA3A3B5
:100EDC0093F8740193F5828883E4737402936860C9
:060EEC00EFA3A3A380DFC9
:101A5400EFB40A07740D121A5F740A309811A8992A
:101A6400B8130CC2983098FDA899C298B811F630F2
:071A740099FDC299F59922CA
:100EF200BC000BBE0029EF8DF084FFADF022E4CCE4
:100F0200F875F008EF2FFFEE33FEEC33FCEE9DECAC
:100F1200984005FCEE9DFE0FD5F0E9E4CEFD22EDF2
:100F2200F8F5F0EE8420D21CFEADF075F008EF2F3C
:100F3200FFED33FD4007985006D5F0F222C398FD2D
:050F42000FD5F0EA22CA
:0C0F4700E6FC08E6FD08E6FE08E6FF22D6
:0C0F5300E0FCA3E0FDA3E0FEA3E0FF2211
:0C0F5F00E2FC08E2FD08E2FE08E2FF22CE
:00000001FF
