:0C093F00736576656E7465656E0D0A00C8
:1008E300AE09AF0A7C007DC8120819ED4C700CE507
:0C08F30008D394004002B297E4F50822FC
:10091600538E7F5389F0758A30758CF8C28DD28CD0
:05092600D2A9D2AF22AE
:03000B0002086E7A
:10086E00C0E0C0D075D000C006C007050AE50A700A
:10087E00020509FFAE09BE0109BFF4067509007530
:0B088E000A00D007D006D0D0D0E03226
:0300230002089937
:10089900C0E0C0D075D000C000309812E508C394FC
:1008A9000A500B740B2508F8A6990508C298D000C0
:0508B900D0D0D0E032B8
:10092B001209161208FF7BFF7A09793F1208BE12D3
:04093B0008E380FB52
:1008FF00759850438E01538EFB75CCCC75CDFF434D
:07090F008E10D2AFD2AC2222
:080957008F993099FDC299222D
:1008BE008B1F8A208921AB1FAA20A9211208006054
:1008CE00130521E5217002052014F9120800FF120C
:0508DE00095780E22231
:0300000002094BA7
:0C094B00787FE4F6D8FD75812102092BAD
:10080000BB010689828A83E0225002E722BBFE02F6
:09081000E32289828A83E4932229
:10081900BC000BBE0029EF8DF084FFADF022E4CCC3
:10082900F875F008EF2FFFEE33FEEC33FCEE9DEC8C
:10083900984005FCEE9DFE0FD5F0E9E4CEFD22EDD2
:10084900F8F5F0EE8420D21CFEADF075F008EF2F1C
:10085900FFED33FD4007985006D5F0F222C398FD0D
:050869000FD5F0EA22AA
:00000001FF
